:100000003EC0000064C0000062C0000060C000008C
:10001000A7C700005CC000005AC0000058C0000024
:1000200056C0000054C0000052C0000050C0000084
:100030004EC000004CC000004AC0000062C7000073
:1000400046C0000044C0000042C0000040C00000A4
:100050003EC000003CC000003AC0000038C00000B4
:1000600036C0000034C0000032C0000030C00000C4
:100070002EC000002CC000002AC00000FD07112483
:100080001FBECFEFCDBFDFE3DEBF80914000809386
:100090004000811105C098ED21E094BF20934100FC
:1000A0008CBB28E3A0E0B8E301C01D92AA36B207DA
:1000B000E1F710E0CFE3D0E004C02197FE010E94F9
:1000C0008408CE33D107C9F76DD70C94990898CF1F
:1000D000CF92DF92EF92FF929FB7F89488E08093DF
:1000E000840A80918E0A81FFFCCF80918D0AE09175
:1000F000A20AF091A30AC0906038D0906138E090D5
:100100006238F09063389FBF80FF08C0E730F10588
:1001100028F48FEFC81AD80AE80AF80A9F01369522
:100120002795CF01820F911DE22FE695E695322F9C
:1001300032953F70E31BFF0B27FD3196E80FF91F47
:10014000A0E3B3E0A7019601D5D7F694E794D7943E
:10015000C794C60ED71EE81EF91EC701B6016E0F62
:100160007F1F811D911DFF90EF90DF90CF9008952C
:10017000CF93DF93282F30E0E901C459DE46888110
:100180008F3F09F43FC0A901465A5E46DA01EC915F
:10019000B0E2EB9FF0011124FC5F611136C0868351
:1001A00090818923A1F4C901885B9E46DC019C9162
:1001B000309769F1983058F57096E90FF11D9FB7A7
:1001C000F8948081611126C0877F80839FBF2A5C5D
:1001D0003E46F90190819923A9F08881903409F174
:1001E000983FE1F0903171F4DA019C919130A1F4E3
:1001F000853010F0880F82959091010A80958923AF
:100200008093010ADF91CF9108958583C9CFF0E0F3
:10021000E0E0D5CF8860D9CF880FEECF1092A0064E
:10022000F1CF823019F180E49091920A982351F332
:100230004FB7F8949091800A9E7F9093800A209106
:10024000920A90E08095909530E08223932328EDE8
:1002500024BF8093920A80918E0A80FFFCCF809108
:10026000800A81608093800A4FBFCCCF80E8DCCFCA
:100270008231F0F490E0FC01E459FE4620812F3FEA
:10028000B9F0FC01E65AFE46E08130E2E39FF0015E
:100290001124FC5F60FF0DC02183885B9E46DC015A
:1002A0008C91E80FF11D808961FF05C08860808B0B
:1002B00008952283F2CF877FFACF61E08BE0D8DF09
:1002C00061E08EE0D5DF61E083E0D2DF60E083E0D3
:1002D0004FDFEDE0F8E389E891E086A397A3E0A77C
:1002E000F1A784E190E08283938388EE93E080938A
:1002F0005A3890935B38E0E2F4E01082108A118A59
:10030000128A82E0838B60E08BE032DF60E08EE077
:100310002FCFFF920F931F93CF93DF9300D000D086
:10032000CDB7DEB780910838882309F4E6C019827A
:100330001A821B821C82FFB6F8940CE211E0E0E006
:10034000AE014E5F5F4F9E012C5F3F4FDA01F0E040
:1003500087E090E007C063E06A95F1F72B9800C052
:10036000019780F0BF01082E02C0759567950A9429
:10037000E2F72B9A60FDEFCF00C02B9800C0000081
:10038000019780F72A173B0711F0ED91E0CF01505C
:10039000110911F0E981DACFFFBE19821A821B829E
:1003A0001C82FFB6F8940CE211E0E0E0DA01F0E024
:1003B00087E090E007C063E06A95F1F7289800C0F5
:1003C000019780F0BF01082E02C0759567950A94C9
:1003D000E2F7289A60FDEFCF00C0289800C0000027
:1003E000019780F72A173B0711F0ED91E0CF0150FC
:1003F000110911F0E981DACFFFBE19821A821B823E
:100400001C82FFB6F8940CE211E0E0E0DA01F0E0C3
:1004100087E090E007C063E06A95F1F7299800C093
:10042000019780F0BF01082E02C0759567950A9468
:10043000E2F7299A60FDEFCF00C0299800C00000C4
:10044000019780F72A173B0711F0ED91E0CF01509B
:10045000110911F0E981DACFFFBE19821A821B82DD
:100460001C82FFB6F8940CE211E0E0E0DA01F0E063
:1004700087E090E007C063E06A95F1F72A9800C032
:10048000019780F0BF01082E02C0759567950A9408
:10049000E2F72A9A60FDEFCF00C02A9800C0000062
:1004A000019780F72A173B0711F0ED91E0CF01503B
:1004B000110911F0E981DACFFFBE60E08EE058DE6D
:1004C00010922004109230041092310410923204E1
:1004D00082E08093330460E08BE04ADE809108384C
:1004E00091E08927809308382496CDBFDEBFDF9145
:1004F000CF911F910F91FF90089561E08BE038DE5E
:1005000061E08EE035DE15B88FEF84B910923304C8
:1005100019821A821B821C82FFB6F8940CE211E049
:10052000E0E0AE014E5F5F4F9E012C5F3F4FDA016E
:10053000F0E087E090E007C063E06A95F1F72B9860
:1005400000C0019780F0BF01082E02C07595679525
:100550000A94E2F72B9A60FDEFCF00C02B9800C001
:100560000000019780F72A173B0711F0ED91E0CFCB
:100570000150110911F0E981DACFFFBE19821A8208
:100580001B821C82FFB6F8940CE211E0E0E0DA0175
:10059000F0E087E090E007C063E06A95F1F7289803
:1005A00000C0019780F0BF01082E02C075956795C5
:1005B0000A94E2F7289A60FDEFCF00C0289800C0A7
:1005C0000000019780F72A173B0711F0ED91E0CF6B
:1005D0000150110911F0E981DACFFFBE19821A82A8
:1005E0001B821C82FFB6F8940CE211E0E0E0DA0115
:1005F000F0E087E090E007C063E06A95F1F72998A2
:1006000000C0019780F0BF01082E02C07595679564
:100610000A94E2F7299A60FDEFCF00C0299800C044
:100620000000019780F72A173B0711F0ED91E0CF0A
:100630000150110911F0E981DACFFFBE19821A8247
:100640001B821C82FFB6F8940CE211E0E0E0DA01B4
:10065000F0E087E090E007C063E06A95F1F72A9840
:1006600000C0019780F0BF01082E02C07595679504
:100670000A94E2F72A9A60FDEFCF00C02A9800C0E2
:100680000000019780F72A173B0711F0ED91E0CFAA
:100690000150110911F0E981DACFFFBE109209383B
:1006A00010920A3810920B3810920C3817CFCF9353
:1006B000DF93EFB7F89470E0282F30E050E0CCE201
:1006C000D1E0FFB7F89487E090E007C0A3E0AA95D7
:1006D000F1F72B9800C0019780F0DB01082E02C0D3
:1006E000B595A7950A94E2F72B9AA0FDEFCF00C02D
:1006F0002B9800C00000019780F787E090E007C0CA
:10070000A3E0AA95F1F72B9800C0019780F0D901DA
:10071000082E02C0B595A7950A94E2F72B9AA0FD82
:10072000EFCF00C02B9800C00000019780F787E052
:1007300090E007C0A3E0AA95F1F72B9800C00197BD
:1007400080F0DA01082E02C0B595A7950A94E2F769
:100750002B9AA0FDEFCF00C02B9800C0000001979E
:1007600080F7FFBF219709F0ACCFCCE2D1E0FFB713
:10077000F89487E090E007C0A3E0AA95F1F72898E5
:1007800000C0019780F0DB01082E02C0B595A79547
:100790000A94E2F7289AA0FDEFCF00C0289800C085
:1007A0000000019780F787E090E007C0A3E0AA95DA
:1007B000F1F7289800C0019780F0D901082E02C0F7
:1007C000B595A7950A94E2F7289AA0FDEFCF00C04F
:1007D000289800C00000019780F787E090E007C0EC
:1007E000A3E0AA95F1F7289800C0019780F0DA01FC
:1007F000082E02C0B595A7950A94E2F7289AA0FDA5
:10080000EFCF00C0289800C00000019780F7FFBF1D
:10081000219709F0ACCFCCE2D1E0FFB7F89487E0A4
:1008200090E007C0A3E0AA95F1F7299800C00197CE
:1008300080F0DB01082E02C0B595A7950A94E2F777
:10084000299AA0FDEFCF00C0299800C000000197B1
:1008500080F787E090E007C0A3E0AA95F1F7299818
:1008600000C0019780F0D901082E02C0B595A79568
:100870000A94E2F7299AA0FDEFCF00C0299800C0A2
:100880000000019780F787E090E007C0A3E0AA95F9
:10089000F1F7299800C0019780F0DA01082E02C014
:1008A000B595A7950A94E2F7299AA0FDEFCF00C06D
:1008B000299800C00000019780F7FFBF219709F039
:1008C000ACCFCCE2D1E0FFB7F89487E090E007C06E
:1008D000A3E0AA95F1F72A9800C0019780F0DB0108
:1008E000082E02C0B595A7950A94E2F72A9AA0FDB2
:1008F000EFCF00C02A9800C00000019780F787E082
:1009000090E007C0A3E0AA95F1F72A9800C00197EC
:1009100080F0D901082E02C0B595A7950A94E2F798
:100920002A9AA0FDEFCF00C02A9800C000000197CE
:1009300080F787E090E007C0A3E0AA95F1F72A9836
:1009400000C0019780F0DA01082E02C0B595A79586
:100950000A94E2F72A9AA0FDEFCF00C02A9800C0BF
:100960000000019780F7FFBF219709F0ACCFEFBFE0
:10097000DF91CF910895CF92DF92EF92FF92CF93C4
:10098000DF9380910D3890910E3897FD7AC09C01CD
:100990003327823108F08CC2F901E459FE46808188
:1009A0008F3F09F485C2265A3E46D901EC91B0E248
:1009B000EB9FF0011124FC5F9085892331E020E05A
:1009C00009F430E0832F922F209117383091183896
:1009D000C1E02817390709F0C0E0EFB7F89440915B
:1009E0006438509165386091663870916738EFBF10
:1009F00040934E3850934F3860935038709351382D
:100A00002817390731F480910F389091103897FDED
:100A1000DCC080914938C81709F461C140934A3855
:100A200050934B3860934C3870934D38C09349388D
:100A3000C09148388091523890915338A0915438E1
:100A4000B09155386A017B01C81AD90AEA0AFB0A33
:100A500080914538909146388230910509F4ADC1B6
:100A60000CF400C18630910509F4B3C087309105BC
:100A700009F4B3C1039709F420C1109245381092CC
:100A800046388FB7F894C0906438D0906538E090BD
:100A90006638F09067388FBF8091093890910A3896
:100AA000A0910B38B0910C38A7019601281B390B87
:100AB0004A0B5B0BDA01C901883E9340A105B105E1
:100AC00060F0C0920938D0920A38E0920B38F09268
:100AD0000C3880910838811162C0809108388111EA
:100AE00040C08FB7F89460910538109205388FBFD9
:100AF000662309F43EC0C0920138D0920238E092D9
:100B00000338F092043880910038861721F0609302
:100B1000003883E02DDBDCDAEB018AE0C82ED12C33
:100B2000E12CF12C0CC0C114D104E104F10491F0CA
:100B300051E0C51AD108E108F108C851DC4FC8DA04
:100B40006C1B7D0B683E734070F7C114D104E10447
:100B5000F104A9F7DF91CF91FF90EF90DF90CF9054
:100B60000895809100388823B1F21092003860E037
:100B7000D0CF8091013890910238A0910338B09184
:100B80000438C81AD90AEA0AFB0A61E04AEFC41617
:100B9000D104E104F10408F4B6CF60E0B4CF809151
:100BA0000638909107388130910509F450C08230A1
:100BB000910509F442C1892B09F08FCF40E060E034
:100BC0008FE775DD81E090E048C081E08093483890
:100BD00020CFCC2309F469C180915C3890915D38B5
:100BE000A0915E38B0915F38481B590B6A0B7B0BA4
:100BF00080915A3890915B38B0E0A0E048175907CF
:100C00006A077B0708F43DCFE0913D38F0913E380C
:100C1000309709F00995E0913F38F09140383097CE
:100C200029F08091413890914238099580914E3851
:100C300090914F38A0915038B091513880935C38E2
:100C400090935D38A0935E38B0935F381ACF40E040
:100C50006FE780E02CDD82E090E08093063890938F
:100C600007383BCF009709F45EC0019709F005CF24
:100C700082E090E0CC2331F18091133890911438C8
:100C8000B0E0A0E08C159D05AE05BF0508F0F9CEDB
:100C9000E0913138F0913238309709F00995E091C0
:100CA0003338F0913438309729F08091353890916D
:100CB0003638099586E090E08BC0CC2309F4C6C095
:100CC00081E090E0809345389093463840935238C5
:100CD000509353386093543870935538D2CE8091E6
:100CE0004A3890914B38A0914C38B0914D386A01F8
:100CF0007B01C81AD90AEA0AFB0A80910F38909141
:100D0000103897FF03C0919581959109092E000C29
:100D1000AA0BBB0BC816D906EA06FB0608F488CE58
:100D2000C093483887CE80914738811115C0809193
:100D3000153890911638B0E0A0E08C159D05AE05F1
:100D4000BF0550F4E0914338F0914438309721F0DA
:100D500081E0809347380995CC2309F492CE81E055
:100D600090E0809345389093463880914E3890912A
:100D70004F38A0915038B0915138809352389093A9
:100D80005338A0935438B093553810925638109277
:100D90005738E0911938F0911A38309709F00995D1
:100DA000E0911B38F0911C38309709F46ACE80919D
:100DB0001D3890911E38099564CE809156389091D7
:100DC00057380196809356389093573883E090E0D7
:100DD000809345389093463854CEE0913738F0915F
:100DE0003838309709F00995E0913938F0913A3860
:100DF000309729F080913B3890913C3809951092BA
:100E000045381092463810925638109257382FB7FE
:100E1000F8948091643890916538A0916638B091CB
:100E200067382FBF8093523890935338A09354382B
:100E3000B09355381092473824CE4FE760E080E0F9
:100E400036DC109206381092073847CE809156381B
:100E500090915738409111385091123870E060E00D
:100E6000C416D506E606F70640F4209158383091AE
:100E700059382817390709F004CE81309105D9F087
:100E8000029761F1E0912B38F0912C38309709F0FE
:100E90000995E0912D38F0912E38309709F4AFCFB5
:100EA00080912F3890913038A9CF87E090E090CF93
:100EB0008FEF9FEF89CDE0911F38F0912038309768
:100EC00009F00995E0912138F0912238309709F422
:100ED00096CF809123389091243890CFE091253897
:100EE000F0912638309709F00995E0912738F09174
:100EF0002838309709F483CF8091293890912A3887
:100F00007DCF8F9381E080938D0A8FB78F93EF937E
:100F1000FF93E0E6F8E39F9368948FEF0DC0E894A9
:100F200084819581805D9C4F84839583885E934006
:100F300080F0848395838FEF9081981B91939081AB
:100F40009F4F919390819F4F919390819F4F919349
:100F500036F39F91FF91EF918F918FBF8F911895ED
:100F60001F920F920FB60F9211248F938091290434
:100F700083FF06C088E08093290481E080930538D0
:100F80008F910F900FBE0F901F901895239A2B985A
:100F90000895209A28980895219A29980895229AC8
:100FA0002A98089588ED90E084BF90936100E0E076
:100FB000F6E083E582838DE0858380E2838381E0B0
:100FC0008083109202028093030A9EEF9093260A78
:100FD0009093270A9BE09093000AE0E8FAE02DEF57
:100FE00031E026A737A7118290E89283848781E1B8
:100FF0008083789462D9BFDCFECFC8DFCADFCCDF44
:10100000CEDFEDE0F8E382E390E08283938380E932
:1010100091E08483958380E293E08683978388EED2
:1010200093E080879187128613861486158616862C
:101030001786108A118A128A138A148A158A168AC8
:10104000178A108E118E128E138E148E158E168E98
:10105000178E10A211A212A213A214A215A216A2F8
:1010600017A210A611A612A613A614A615A616A6B8
:1010700017A610AA11AA12AA13AA14AA15AA16AA88
:1010800017AA10AE11AE12AE13AE14AE10924A38BB
:1010900010924B3810924C3810924D3810924E38B6
:1010A00010924F3810925038109251381092523896
:1010B0001092533810925438109255381092563876
:1010C0001092573881E090E08093583890935938C7
:1010D00010925A3810925B3810925C3810925D383A
:1010E00010925E3810925F388FE090E08083918399
:1010F00062E0BEC80FD0A59F900DB49F900DA49F35
:10110000800D911D11240895EE0FFF1F0590F4919D
:10111000E02D0994A29FB001B39FC001A39F700D61
:10112000811D1124911DB29F700D811D1124911DEF
:061130000895F894FFCFC2
:101136001010F800000000101010404000000000E1
:10114600100004050607050403020100000102035E
:101156000102030000000000010101010101020279
:101166000202000000001020408020100804020146
:08117600010204080204080153
:00000001FF
