:100000003EC0000062C0000060C000005EC0000092
:100010005CC000005AC0000058C0000056C000007C
:1000200054C0000052C0000050C000004EC000008C
:100030004CC000004AC0000048C0000008C70000D3
:1000400044C0000042C0000040C000003EC00000AC
:100050003CC000003AC0000038C0000036C00000BC
:1000600034C0000032C0000030C000002EC00000CC
:100070002CC000002AC0000028C000008D071124F9
:100080001FBECFEFCDBFDFE3DEBF80914000809386
:100090004000811105C098ED21E094BF20934100FC
:1000A0008CBB28E3A0E0B8E301C01D92A436B207E0
:1000B000E1F710E0CFE3D0E003C02197FE01B4D711
:1000C000CE33D107D1F7FED6C4C79ACF9FB7F894E5
:1000D00088E08093840A80918E0A81FFFCCF809112
:1000E0008D0AE091A20AF091A30A20915A3830912A
:1000F0005B3840915C3850915D389FBF80FF07C0EE
:10010000E730F10520F42F5F3F4F4F4F5F4FBF01A6
:1001100076956795CF01860F911DE62FE695E695BA
:10012000762F72957F70E71BFF0B67FD3196E80F06
:10013000F91FA0E3B3E06ED76E0F7F1F811D911DE5
:100140000895CF93DF93282F30E0E901C457DF46AD
:1001500088818F3F09F43FC0A90146585F46DA0104
:10016000EC91B0E2EB9FF0011124FC5F611136C00D
:10017000868390818923A1F4C90188599F46DC01B7
:100180009C91309769F1983058F57096E90FF11D00
:100190009FB7F8948081611126C0877F80839FBFBD
:1001A0002A5A3F46F90190819923A9F08881903419
:1001B00009F19038E1F0903171F4DA019C919130BD
:1001C000A1F4853010F0880F82959091010A8095F6
:1001D00089238093010ADF91CF9108958583C9CF48
:1001E000F0E0E0E0D5CF8860D9CF880FEECF109255
:1001F000A006F1CF20E4823009F420E89091920A21
:10020000922349F36FB7F8949091800A9E7F909360
:10021000800A4091920A30E02095309550E02423E6
:10022000352398ED94BF2093920A90918E0A90FF07
:10023000FCCF9091800A91609093800A813039F4CC
:10024000809150048F77809350046FBFC4CF80910A
:1002500051048F7780935104F8CF8231F0F490E00D
:10026000FC01E457FF4620812F3FB9F0FC01E6581E
:10027000FF46E08130E2E39FF0011124FC5F60FF64
:100280000DC0218388599F46DC018C91E80FF11D38
:10029000808961FF05C08860808B08952283F2CF3A
:1002A000877FFACF61E08BE0D8DF61E08EE0D5DFB9
:1002B000E7E0F8E387E791E086A397A3E0A7F1A73B
:1002C00084E190E08283938388EE93E080935438B6
:1002D00090935538E0E2F4E01082108A118A128A75
:1002E000138A60E08BE02DDF60E08EE02ACFFF9282
:1002F0000F931F93CF93DF9300D000D0CDB7DEB71D
:1003000080910238882309F4E5C019821A821B8281
:100310001C82FFB6F8940CE211E0E0E0AE014E5F03
:100320005F4F9E012C5F3F4FDA01F0E087E090E0E5
:1003300007C063E06A95F1F72B9800C0019780F041
:10034000BF01082E02C0759567950A94E2F72B9AB3
:1003500060FDEFCF00C02B9800C00000019780F730
:100360002A173B0711F0ED91E0CF0150110911F070
:10037000E981DACFFFBE19821A821B821C82FFB686
:10038000F8940CE211E0E0E0DA01F0E087E090E0C0
:1003900007C063E06A95F1F7289800C0019780F0E4
:1003A000BF01082E02C0759567950A94E2F7289A56
:1003B00060FDEFCF00C0289800C00000019780F7D3
:1003C0002A173B0711F0ED91E0CF0150110911F010
:1003D000E981DACFFFBE19821A821B821C82FFB626
:1003E000F8940CE211E0E0E0DA01F0E087E090E060
:1003F00007C063E06A95F1F7299800C0019780F083
:10040000BF01082E02C0759567950A94E2F7299AF4
:1004100060FDEFCF00C0299800C00000019780F771
:100420002A173B0711F0ED91E0CF0150110911F0AF
:10043000E981DACFFFBE19821A821B821C82FFB6C5
:10044000F8940CE211E0E0E0DA01F0E087E090E0FF
:1004500007C063E06A95F1F72A9800C0019780F021
:10046000BF01082E02C0759567950A94E2F72A9A93
:1004700060FDEFCF00C02A9800C00000019780F710
:100480002A173B0711F0ED91E0CF0150110911F04F
:10049000E981DACFFFBE60E08EE053DE10922004E7
:1004A00010923004109231041092320410923304EE
:1004B00060E08BE046DE8091023891E089278093EE
:1004C00002382496CDBFDEBFDF91CF911F910F91EF
:1004D000FF90089561E08BE034DE61E08EE031DE74
:1004E00015B88FEF84B919821A821B821C82FFB65D
:1004F000F8940CE211E0E0E0AE014E5F5F4F9E0128
:100500002C5F3F4FDA01F0E087E090E007C063E046
:100510006A95F1F72B9800C0019780F0BF01082E73
:1005200002C0759567950A94E2F72B9A60FDEFCFAC
:1005300000C02B9800C00000019780F72A173B07E6
:1005400011F0ED91E0CF0150110911F0E981DACFFE
:10055000FFBE19821A821B821C82FFB6F8940CE23D
:1005600011E0E0E0DA01F0E087E090E007C063E04E
:100570006A95F1F7289800C0019780F0BF01082E16
:1005800002C0759567950A94E2F7289A60FDEFCF4F
:1005900000C0289800C00000019780F72A173B0789
:1005A00011F0ED91E0CF0150110911F0E981DACF9E
:1005B000FFBE19821A821B821C82FFB6F8940CE2DD
:1005C00011E0E0E0DA01F0E087E090E007C063E0EE
:1005D0006A95F1F7299800C0019780F0BF01082EB5
:1005E00002C0759567950A94E2F7299A60FDEFCFEE
:1005F00000C0299800C00000019780F72A173B0728
:1006000011F0ED91E0CF0150110911F0E981DACF3D
:10061000FFBE19821A821B821C82FFB6F8940CE27C
:1006200011E0E0E0DA01F0E087E090E007C063E08D
:100630006A95F1F72A9800C0019780F0BF01082E53
:1006400002C0759567950A94E2F72A9A60FDEFCF8C
:1006500000C02A9800C00000019780F72A173B07C6
:1006600011F0ED91E0CF0150110911F0E981DACFDD
:10067000FFBE109203381092043810920538109281
:10068000063819CF1F93CF93DF93AFB7F894E62FB7
:10069000F0E0682F70E0242F30E04CE251E0BFB76B
:1006A000F89487E090E007C0C3E0CA95F1F72B9873
:1006B00000C0019780F0EF01082E02C0D595C795C4
:1006C0000A94E2F72B9AC0FDEFCF00C02B9800C030
:1006D0000000019780F787E090E007C0C3E0CA956B
:1006E000F1F72B9800C0019780F0EB01082E02C0B3
:1006F000D595C7950A94E2F72B9AC0FDEFCF00C0BD
:100700002B9800C00000019780F787E090E007C0B9
:10071000C3E0CA95F1F72B9800C0019780F0E9017A
:10072000082E02C0D595C7950A94E2F72B9AC0FD12
:10073000EFCF00C02B9800C00000019780F7BFBF2B
:10074000BFB7F89487E090E007C0C3E0CA95F1F71F
:10075000289800C0019780F0EF01082E02C0D595BF
:10076000C7950A94E2F7289AC0FDEFCF00C02898F9
:1007700000C00000019780F787E090E007C0C3E069
:10078000CA95F1F7289800C0019780F0EB01082E78
:1007900002C0D595C7950A94E2F7289AC0FDEFCF1D
:1007A00000C0289800C00000019780F787E090E023
:1007B00007C0C3E0CA95F1F7289800C0019780F000
:1007C000E901082E02C0D595C7950A94E2F7289A48
:1007D000C0FDEFCF00C0289800C00000019780F74F
:1007E000BFBFBFB7F89487E090E007C0C3E0CA95E9
:1007F000F1F7299800C0019780F0EF01082E02C0A0
:10080000D595C7950A94E2F7299AC0FDEFCF00C0AD
:10081000299800C00000019780F787E090E007C0AA
:10082000C3E0CA95F1F7299800C0019780F0EB0169
:10083000082E02C0D595C7950A94E2F7299AC0FD03
:10084000EFCF00C0299800C00000019780F787E033
:1008500090E007C0C3E0CA95F1F7299800C001975E
:1008600080F0E901082E02C0D595C7950A94E2F7F9
:10087000299AC0FDEFCF00C0299800C00000019761
:1008800080F7BFBFBFB7F89487E090E007C0C3E030
:10089000CA95F1F72A9800C0019780F0EF01082E61
:1008A00002C0D595C7950A94E2F72A9AC0FDEFCF0A
:1008B00000C02A9800C00000019780F787E090E010
:1008C00007C0C3E0CA95F1F72A9800C0019780F0ED
:1008D000EB01082E02C0D595C7950A94E2F72A9A33
:1008E000C0FDEFCF00C02A9800C00000019780F73C
:1008F00087E090E007C0C3E0CA95F1F72A9800C0EE
:10090000019780F0E901082E02C0D595C7950A9499
:10091000E2F72A9AC0FDEFCF00C02A9800C000007D
:10092000019780F7BFBF4150510909F0B8CEAFBF62
:10093000DF91CF911F910895CF92DF92EF92FF92B6
:100940000F931F93CF93DF938091073890910838CE
:1009500097FD7AC09C013327823108F04FC2F9011C
:10096000E457FF4680818F3F09F448C226583F462E
:10097000D901EC91B0E2EB9FF0011124FC5F90856E
:10098000892331E020E009F430E0832F922F209179
:10099000113830911238C1E02817390709F0C0E04A
:1009A000EFB7F89440915E3850915F3860916038AD
:1009B00070916138EFBF4093483850934938609345
:1009C0004A3870934B382817390731F48091093829
:1009D00090910A3897FDA3C080914338C81709F455
:1009E00026C14093443850934538609346387093FD
:1009F0004738C0934338C091423880914C38909129
:100A00004D38A0914E38B0914F386A017B01C81A19
:100A1000D90AEA0AFB0A80913F3890914038823027
:100A2000910509F479C10CF4C5C08630910509F42B
:100A300083C08730910509F47FC1039709F4E5C0AD
:100A400010923F38109240382FB7F89480915E385A
:100A500090915F38A0916038B09161382FBF40917C
:100A600003385091043860910538709106388C0134
:100A70009D01041B150B260B370BB901A801483E3D
:100A800053406105710518F1809303389093043841
:100A9000A0930538B0930638809102388823B9F0C6
:100AA00080910038909101388130910509F4E3C0BC
:100AB00082309105C1F1892B51F440E060E08FE76D
:100AC000E1DD81E090E08093003890930138FEDA18
:100AD000EB018AE0C82ED12CE12CF12C0CC0C11402
:100AE000D104E104F10491F021E0C21AD108E10837
:100AF000F108C851DC4FEADA6C1B7D0B683E73408D
:100B000070F7C114D104E104F104A9F7DF91CF918A
:100B10001F910F91FF90EF90DF90CF90089581E0AB
:100B20008093423859CF4FE760E080E0ABDD109210
:100B3000003810920138CBCFCC2309F45CC18091EE
:100B4000563890915738A0915838B0915938481B71
:100B5000590B6A0B7B0B8091543890915538B0E05B
:100B6000A0E0481759076A077B0708F46DCFE091AA
:100B70003738F0913838309709F00995E0913938D5
:100B8000F0913A38309729F080913B3890913C3879
:100B900009958091483890914938A0914A38B09190
:100BA0004B388093563890935738A0935838B09369
:100BB00059384ACF009709F465C0019709F040CF32
:100BC00082E090E0CC2331F180910D3890910E3885
:100BD000B0E0A0E08C159D05AE05BF0508F034CF50
:100BE000E0912B38F0912C38309709F00995E0917D
:100BF0002D38F0912E38309729F080912F38909130
:100C00003038099586E090E092C0CC2309F4C4C046
:100C100081E090E080933F389093403840934C3887
:100C200050934D3860934E3870934F380DCF80916C
:100C3000443890914538A0914638B09147386A01C0
:100C40007B01C81AD90AEA0AFB0A809109389091F7
:100C50000A3897FF03C0919581959109092E000CE0
:100C6000AA0BBB0BC816D906EA06FB0608F4C3CECE
:100C7000C0934238C2CE40E06FE780E003DD82E0FF
:100C800090E021CF80914138811115C080910F38BB
:100C900090911038B0E0A0E08C159D05AE05BF0521
:100CA00050F4E0913D38F0913E38309721F081E0EA
:100CB000809341380995CC2309F4C6CE81E090E0B9
:100CC00080933F38909340388091483890914938CC
:100CD000A0914A38B0914B3880934C3890934D385E
:100CE000A0934E38B0934F3810925038109251382C
:100CF000E0911338F0911438309709F00995E0919C
:100D00001538F0911638309709F49ECE8091173837
:100D100090911838099598CE80915038909151381B
:100D20000196809350389093513883E090E08093FF
:100D30003F389093403888CEE0913138F091323886
:100D4000309709F00995E0913338F09134383097B5
:100D500029F08091353890913638099510923F38B6
:100D60001092403810925038109251382FB7F894A2
:100D700080915E3890915F38A0916038B091613871
:100D80002FBF80934C3890934D38A0934E38B0933A
:100D90004F381092413858CE809150389091513848
:100DA00040910B3850910C3870E060E0C416D506C5
:100DB000E606F70640F42091523830915338281750
:100DC000390709F041CE81309105D9F0029761F1E0
:100DD000E0912538F0912638309709F00995E09197
:100DE0002738F0912838309709F4B8CF8091293806
:100DF00090912A38B2CF87E090E099CF8FEF9FEFA4
:100E0000C6CDE0911938F0911A38309709F009955C
:100E1000E0911B38F0911C38309709F49FCF8091F6
:100E20001D3890911E3899CFE0911F38F0912038ED
:100E3000309709F00995E0912138F09122383097E8
:100E400009F48CCF809123389091243886CF8F93EA
:100E500081E080938D0A8FB78F93EF93FF93EAE53C
:100E6000F8E39F9368948FEF0DC0E8948481958197
:100E7000805D9C4F84839583885E934080F084835B
:100E800095838FEF9081981B919390819F4F9193C1
:100E900090819F4F919390819F4F919336F39F91B3
:100EA000FF91EF918F918FBF8F911895239A2B9877
:100EB0000895209A28980895219A29980895229AA9
:100EC0002A98089588ED90E084BF90936100E0E057
:100ED000F6E083E582838DE0858380E2838381E091
:100EE0008083109202028093030A9EEF9093260A59
:100EF0009093270A9BE09093000AE0E8FAE02DEF38
:100F000031E026A737A7118290E89283848781E198
:100F100080837894C7D910DDFECFC8DFCADFCCDF6D
:100F2000CEDFE7E0F8E382E390E08283938380E919
:100F300091E08483958380E293E08683978388EEB3
:100F400093E080879187128613861486158616860D
:100F50001786108A118A128A138A148A158A168AA9
:100F6000178A108E118E128E138E148E158E168E79
:100F7000178E10A211A212A213A214A215A216A2D9
:100F800017A210A611A612A613A614A615A616A699
:100F900017A610AA11AA12AA13AA14AA15AA16AA69
:100FA00017AA10AE11AE12AE13AE14AE10924438A2
:100FB00010924538109246381092473810924838AF
:100FC0001092493810924A3810924B3810924C388F
:100FD00010924D3810924E3810924F38109250386F
:100FE0001092513881E090E08093523890935338BA
:100FF0001092543810925538109256381092573833
:1010000010925838109259388FE090E08083918385
:1010100062E023C90FD0A59F900DB49F900DA49FAF
:10102000800D911D11240895EE0FFF1F0590F4917E
:10103000E02D0994A29FB001B39FC001A39F700D42
:10104000811D1124911DB29F700D811D1124911DD0
:061050000895F894FFCFA3
:10105600101080000000001010104040000000003A
:10106600100004050607050403020100000102033F
:10107600010203000000000001010101010102025A
:101086000202000000001020408020100804020127
:08109600010204080204080134
:00000001FF
